:1001CC006E6F69736554484420207365743A3230FD
:1001DC000064423A303000303132333435363738FF
:0201EC003900D8
:0A026000010900010800020B000074
:1001A8001202071202321200FBC28112009AC3E542
:1001B8000894027480948040F2D2817FE81201880A
:0401C800C28180E789
:10020700C2A77F381202427F0C1202427F061202F7
:06021700427F01020242D9
:1000FB007F80120242E4F50A7BFF7A0179CC12026F
:10010B001DC3E50A9FE49E5013E50A9001CC93FFB3
:10011B001202517F05120188050A80DC7FC0120292
:10012B0042E4F50A7BFF7A0179DD12021DC3E50A71
:10013B009FE49E5013E50A9001DD93FF1202517F5D
:09014B0005120188050A80DC227E
:10009A007BFF7A0179DD12021DEF24BFFF120242B3
:1000AA0020804D0509E509640A703BF5090508E554
:1000BA0008640A7005F5080200FB7BFF7A0179DD06
:1000CA0012021DEF24BEFF120242E5089001E393DB
:1000DA00FF1202517BFF7A0179DD12021DEF24BF64
:1000EA00FF1202428000E5099001E393FF120251D8
:0100FA0022E3
:0F024200C2A5120182D2A77F05120188C2A7228E
:0F025100D2A5120182D2A77F05120188C2A7226F
:06018200C2A68F907F056C
:100188007E00D3EF9400EE940040147D6E7C00ED69
:0F0198001D70011CED4C70F7EF1F70E61E80E329
:0101A7002235
:10023200758901758C3C758AB0D2AFD2A9D28C2255
:03000B000201549B
:10015400C0E0C0D0758C3C758AB0050CE50C70020B
:10016400050BC39414E50B64809480400C7509005E
:0E017400750800750B00750C00D0D0D0E0327D
:0300000002000EED
:0C000E00787FE4F6D8FD75810C020055E7
:10021D00E4FFFE1201EE600C0FEF70010E09E970A4
:05022D00F20A80EF223F
:10001A000201A8E493A3F8E493A34003F68001F253
:10002A0008DFF48029E493A3F85407240CC8C333E7
:10003A00C4540F4420C8834004F456800146F6DFB6
:10004A00E4800B0102040810204080900260E47EE4
:10005A00019360BCA3FF543F30E509541FFEE493AB
:10006A00A360010ECF54C025E060A840B8E493A372
:10007A00FAE493A3F8E493A3C8C582C8CAC583CA9D
:10008A00F0A3C8C582C8CAC583CADFE9DEE780BE55
:01026A000093
:1001EE00BB010689828A83E0225002E722BBFE020F
:0901FE00E32289828A83E4932242
:00000001FF
